:100000000C9427020C944F020C944F020C944F0254
:100010000C944F020C944F020C944F020C944F021C
:100020000C944F020C944F020C9473170C943F16CF
:100030000C944F020C944F020C944F020C944F02FC
:100040000C944F020C94AE090C944F020C944F0286
:100050000C944F020C944F020C944F020C944711D5
:100060000C944F020C944F020C944F020C944F02CC
:100070000C944F020C944F020C944F020C944F02BC
:100080000C944F020C944F020C944F020C944F02AC
:100090000C94F20C0C944F020C944F020C944F02EF
:1000A0000C944F020C944F020C944F024A124D12C2
:1000B0003C12401246126E126E126E1251125512FE
:1000C00059125F1263126E12691207634236B79BB0
:1000D000D8A71A39685618AEBAAB558C1D3CB7CCA8
:1000E0005763BD6DEDFD753EF6177231BF00000020
:1000F000803F08000000BE922449123EABAAAA2A03
:10010000BECDCCCC4C3E00000080BEABAAAAAA3E1D
:1001100000000000BF000000803F00000000000859
:100120004178D3BB4387D1133D190E3CC3BD4282F6
:10013000AD2B3E68EC8276BED98FE1A93E4C80EFB4
:10014000FFBE01C4FF7F3F0000000000000000026E
:1001500000090F0000030401000C00000000000073
:100160000000000000000000000004080201104030
:100170008040102040804080080204018040201010
:10018000020110801020404004040404040304050C
:100190000202020204030202020206060606060624
:1001A00004040202020400000000250028002B00C5
:1001B0002E00310000000000240027002A002D003E
:1001C0003000080B000202020100090400000102D5
:1001D000020000052400100105240101010424028D
:1001E00006052406000107058103100040090401EB
:1001F00000020A0000000705020240000007058314
:100200000240000000C18081C11201000202000012
:100210004041233780000101020001120100020069
:100220000000404123378000010102000141726457
:1002300075696E6F204C4C430041726475696E6F36
:10024000204D6963726F0004030904000000000080
:100250000000002A2B280000000000000000000021
:1002600000000000000000000000002C9EB4A0A1CF
:10027000A2A434A6A7A5AE362D3738271E1F2021ED
:100280002223242526B333B62EB7B89F84858687CC
:1002900088898A8B8C8D8E8F909192939495969766
:1002A00098999A9B9C9D2F3130A3AD350405060784
:1002B00008090A0B0C0D0E0F101112131415161746
:1002C00018191A1B1C1DAFB1B0B5000904020001BA
:1002D00003000000092101010001226500070584D7
:1002E0000340000105010902A1010901A1008501E6
:1002F00005091901290315002501950375018102DE
:100300009501750581030501093009310938158109
:10031000257F750895038106C0C005010906A10166
:100320008502050719E029E71500250175019508E3
:1003300081029501750881039506750815002565EC
:100340000507190029658100C000407A10F35A00A2
:10035000A0724E18090010A5D4E80000E8764817EE
:100360000000E40B54020000CA9A3B000000E1F5D3
:1003700005000080969800000040420F000000A099
:100380008601000000102700000000E803000000C4
:10039000006400000000000A0000000000010000EE
:1003A0000000002C76D888DC674F0823DFC1DFAE61
:1003B00059E1B1B796E5E3E453C63AE6519976962A
:1003C000E8E6C28426EB898C9B62ED407C6FFCEFF3
:1003D000BC9C9F40F2BAA56FA5F490055A2AF75C21
:1003E000936B6CF9676DC11BFCE0E40D47FEF520D3
:1003F000E6B500D0ED902E0300943577050080849B
:100400001E080000204E0A000000C80C33333333AE
:100410000F986E12831141EF8D2114893BE655161A
:10042000CFFEE6DB18D1844B381BF77C1D901DA452
:10043000BBE424203284725E228100C9F124ECA145
:10044000E53D2700F806100CB013C41B0C0711245F
:100450001FBECFEFDAE0DEBFCDBF16E0A0E0B1E017
:10046000E0ECFAE402C005900D92AA3BB107D9F77F
:1004700028E0AAEBB6E001C01D92A135B207E1F772
:1004800014E0CCE4D4E004C02297FE010E947F1F58
:10049000C434D107C9F70E94CE130C9453250C9491
:1004A0000000AF92BF92CF92DF92EF92FF920F9334
:1004B0001F93CF93DF9300D000D000D0CDB7DEB72D
:1004C0008C017B018AEBC82E86E0D82EB701C801CB
:1004D0000E94391A97FD3BC0B701C8010E94391A22
:1004E0005C019C0140E050E0B801CE0101960E9401
:1004F0003D1ACE0101960E94821AF6016193719312
:100500006F01CE0101960E94E917F801248135811F
:10051000A5014F5F5F4FB801CE0101960E943D1AC1
:10052000BE016F5F7F4FC8010E946D18CE0101961A
:100530000E94E917B701C8010E94391A019631F6E5
:10054000C8010E94821AF60171836083BFCF8AEBD3
:1005500096E026960FB6F894DEBF0FBECDBFDF91B2
:10056000CF911F910F91FF90EF90DF90CF90BF90B0
:10057000AF900895CF93DF93EC0186EE97E00E9451
:10058000A113882339F0BE0186EE97E0DF91CF9169
:100590000C941F14DF91CF910895CF93DF93EC015A
:1005A00086EE97E00E94A113882339F0BE0186EE03
:1005B00097E0DF91CF910C943114DF91CF910895A2
:1005C000CF93DF9300D000D000D0CDB7DEB76EE17F
:1005D00071E0CE0101960E945718CE0101960E944B
:1005E000CD02CE0101960E94E91767E371E0CE01CA
:1005F00001960E945718CE0101960E94CD02CE01AD
:1006000001960E94E91767E471E0CE0101960E940D
:100610005718CE0101960E94CD02CE0101960E948C
:10062000E9176BE771E0CE0101960E945718CE01E1
:1006300001960E94CD02CE0101960E94E91762EB5D
:1006400071E0CE0101960E945718CE0101960E94DA
:10065000CD02CE0101960E94E91766EE71E0CE014F
:1006600001960E945718CE0101960E94CD02CE013C
:1006700001960E94E9176FE976E0CE0101960E948B
:100680005718CE0101960E94CD02CE0101960E941C
:10069000E9176FE072E0CE0101960E945718CE0173
:1006A00001960E94CD02CE0101960E94E9176FE9E2
:1006B00076E0CE0101960E945718CE0101960E9465
:1006C000CD02CE0101960E94E91760E272E0CE01F0
:1006D00001960E945718CE0101960E94CD02CE01CC
:1006E00001960E94E91761E872E0CE0101960E942E
:1006F0005718CE0101960E94CD02CE0101960E94AC
:10070000E91761EE72E0CE0101960E945718CE0102
:1007100001960E94CD02CE0101960E94E91766E281
:1007200073E0CE0101960E945718CE0101960E94F7
:10073000CD02CE0101960E94E91761E373E0CE017C
:1007400001960E945718CE0101960E94CD02CE015B
:1007500001960E94E9176FE976E0CE0101960E94AA
:100760005718CE0101960E94CD02CE0101960E943B
:10077000E91761E573E0CE0101960E945718CE019A
:1007800001960E94CD02CE0101960E94E91766E211
:1007900073E0CE0101960E945718CE0101960E9487
:1007A000CD02CE0101960E94E91768E973E0CE01FF
:1007B00001960E945718CE0101960E94CD02CE01EB
:1007C00001960E94E9176FE976E0CE0101960E943A
:1007D0005718CE0101960E94CD02CE0101960E94CB
:1007E000E9176FEC73E0CE0101960E945718CE0115
:1007F00001960E94CD02CE0101960E94E9176FE991
:1008000076E0CE0101960E945718CE0101960E9413
:10081000CD02CE0101960E94E91768ED73E0CE018A
:1008200001960E945718CE0101960E94CD02CE017A
:1008300001960E94E9176FE274E0CE0101960E94D2
:100840005718CE0101960E94CD02CE0101960E945A
:10085000E9176FE976E0CE0101960E945718CE01A4
:1008600001960E94CD02CE0101960E94E9176EE426
:1008700074E0CE0101960E945718CE0101960E94A5
:10088000CD02CE0101960E94E91765EA74E0CE011F
:1008900001960E945718CE0101960E94CD02CE010A
:1008A00001960E94E91768EC74E0CE0101960E945F
:1008B0005718CE0101960E94CD02CE0101960E94EA
:1008C000E9176AE275E0CE0101960E945718CE0141
:1008D00001960E94CD02CE0101960E94E91726964C
:1008E0000FB6F894DEBF0FBECDBFDF91CF91089554
:1008F000CF93DF9300D000D000D0CDB7DEB74091CA
:100900000A0150910B0160910C0170910D018DED68
:1009100096E00E9416116093D4067093D5068093DA
:10092000D6069093D70626EF3AE74DE152E40E94AF
:10093000581D6093D0067093D1068093D206909391
:10094000D30667E475E0CE0101960E945718CE01E8
:1009500001960E94BA02CE0101960E94E9174091C9
:10096000D0065091D1066091D2067091D30622E054
:10097000CE0101960E941619CE0101960E94BA027C
:10098000CE0101960E94E91763E575E0CE0101965C
:100990000E945718CE0101960E94BA02CE0101961C
:1009A0000E94E9172091CC063091CD064091CE06E9
:1009B0005091CF066091D0067091D1068091D206F9
:1009C0009091D3060E94D11BAB01BC0122E0CE0165
:1009D00001960E941619CE0101960E94CD02CE0109
:1009E00001960E94E91726960FB6F894DEBF0FBE57
:1009F000CDBFDF91CF910895CF93DF9300D000D08A
:100A000000D0CDB7DEB764E775E0CE0101960E9455
:100A10005718CE0101960E94BA02CE0101960E949B
:100A2000E9178DED96E00E944C0FAB01BC0122E06E
:100A3000CE0101960E941619CE0101960E94BA02BB
:100A4000CE0101960E94E91763E875E0CE01019698
:100A50000E945718CE0101960E94CD02CE01019648
:100A60000E94E91726960FB6F894DEBF0FBECDBFE1
:100A7000DF91CF910895CF93DF9300D000D000D0C5
:100A8000CDB7DEB767E875E0CE0101960E94571832
:100A9000CE0101960E94BA02CE0101960E94E9178A
:100AA0008DED96E00E94C00FAB01BC012AE0CE01A3
:100AB00001960E94E918CE0101960E94BA02CE0169
:100AC00001960E94E91763E975E0CE0101960E9444
:100AD0005718CE0101960E94CD02CE0101960E94C8
:100AE000E91726960FB6F894DEBF0FBECDBFDF9193
:100AF000CF910895FF920F931F93CF93DF9300D070
:100B000000D000D0CDB7DEB76FE976E086EC96E096
:100B10000E948D1800E010E08EE7F81641F1C80140
:100B20000E94A022F82E682FCE0101960E94A518DF
:100B3000BE016F5F7F4F86EC96E00E947219CE0176
:100B400001960E94E9170F5F1F4F053F81E01807CC
:100B500019F767E975E0CE0101960E945718CE019A
:100B600001960E94CD02CE0101960E94E9172696B9
:100B70000FB6F894DEBF0FBECDBFDF91CF911F91AE
:100B80000F91FF9008950F931F93CF93DF93CDB7ED
:100B9000DEB76E970FB6F894DEBF0FBECDBF00E094
:100BA00010E060E0C8010E94A8220F5F1F4F0115EE
:100BB00084E01807B1F760910E0170910F014AE0CF
:100BC000CE0101960E94BD18609110017091110133
:100BD0004AE0CE0107960E94BD1860911201709103
:100BE00013014AE0CE0143960E94BD18BE016D5E1E
:100BF0007F4FCE010D960E9484186FE273E0CE0104
:100C00000D960E949F19BE01695F7F4F0E948C194B
:100C10006FE273E00E949F19BE016F5F7F4F0E94D9
:100C20008C19BC01CE0149960E948418CE010D9604
:100C30000E94E917CE0143960E94E917CE0107965C
:100C40000E94E917CE0101960E94E91700E010E02A
:100C50008D8D9E8D0817190768F4B801CE0149964D
:100C60000E940B1AFC016081C8010E94A8220F5F3C
:100C70001F4FEECF6EE701960E94A8220E947A05D0
:100C8000CE0149960E94E9176E960FB6F894DEBF22
:100C90000FBECDBFDF91CF911F910F9108950F939C
:100CA0001F93CF93DF93CDB7DEB72C970FB6F89491
:100CB000DEBF0FBECDBF40E855E260E070E086EEDB
:100CC00097E00E949B1368EE73E080E090E00E9442
:100CD000B4116AE070E084EF96E00E94040B63E0D8
:100CE0008DED96E00E94DF0E81110FC06FE975E077
:100CF000CE0101960E945718CE0101960E94CD02A6
:100D0000CE0101960E94E917FFCF0E947A058091DB
:100D1000CA069091CB06892B81F16FE273E0CE0178
:100D200001960E94571866EC76E0CE0107960E9465
:100D30008418BE016F5F7F4FCE0107960E9451025B
:100D40008C01CE0107960E94E917CE0101960E9400
:100D5000E917F8018081918190931301809312012A
:100D600082819381909311018093100184819581F8
:100D700090930F0180930E010EC063ED75E0CE01DC
:100D800001960E945718CE0101960E94CD02CE0115
:100D900001960E94E91740910A0150910B01609160
:100DA0000C0170910D018DED96E00E94161160937B
:100DB000D4067093D5068093D6069093D70626EF77
:100DC0003AE74DE152E40E94581D6093CC067093BF
:100DD000CD068093CE069093CF062C960FB6F8944E
:100DE000DEBF0FBECDBFDF91CF911F910F91089550
:100DF00084EF96E00E946A0A8DED96E00E941F0E35
:100E00006FE976E086EC96E00E9457186FE976E08D
:100E100080EC96E00C94571880EC96E00E94E9175D
:100E200086EC96E00C94E917CF92DF92EF92FF9256
:100E3000CF93DF93CDB7DEB762970FB6F894DEBFDE
:100E40000FBECDBF86EE97E00E940813892B81F07C
:100E500086EE97E00E941813682F80EC96E00E94BF
:100E6000791962E070E080E090E00E94B411EACF6E
:100E70008091C4069091C506892B09F4AFC160EE3C
:100E800075E080EC96E00E94B91981110E94E002A1
:100E900066EE75E080EC96E00E94B919882319F09F
:100EA00081E08093DC066BEE75E080EC96E00E94BA
:100EB000B91981111092DC0661EF75E080EC96E0C3
:100EC0000E94B919882319F081E08093DB0666EF50
:100ED00075E080EC96E00E94B91981111092DB0652
:100EE0006CEF75E080EC96E00E94B919882319F048
:100EF00081E08093DA0661E076E080EC96E00E9483
:100F0000B91981111092DA0667E076E080EC96E07C
:100F10000E94B919882339F081E08093DC06809320
:100F2000DB068093DA066EE076E080EC96E00E94C5
:100F3000B919882331F01092DC061092DB0610926A
:100F4000DA0666E176E080EC96E00E94B919882323
:100F500069F0609110017091110184EF96E00E9498
:100F60000A0B81E08093D9061092D8066EE176E0F4
:100F700080EC96E00E94B919882369F060910E0117
:100F800070910F0184EF96E00E940A0B1092D9062F
:100F900081E08093D80667E276E0CE0101960E9458
:100FA0005718BE016F5F7F4F80EC96E00E94FC19DE
:100FB000F82ECE0101960E94E917FF2009F488C09F
:100FC0002091C4063091C50644E050E060EC76E024
:100FD000CE010D960E943D1A60911201709113018D
:100FE0004AE0CE0107960E94BD18CE010D960E94E0
:100FF000821A672B682B692BB1F16CE276E0CE0187
:1010000001960E945718CE0101960E94BA02CE01A5
:1010100001960E94E917BE01635F7F4FCE010196E2
:101020000E948418CE0101960E94BA02CE01019658
:101030000E94E91767E376E0CE0101960E945718F7
:10104000CE0101960E94CD02CE0101960E94E917C1
:10105000CE010D960E94821A7093130160931201C3
:101060000E94C3052DC06FE376E0CE0101960E9479
:101070005718CE0101960E94BA02CE0101960E9435
:10108000E91760911201709113014AE0CE010196B7
:101090000E94BD18CE0101960E94BA02CE010196AF
:1010A0000E94E91767E376E0CE0101960E94571887
:1010B000CE0101960E94CD02CE0101960E94E91751
:1010C000CE0107960E94E917CE010D960E94E917FE
:1010D0006AE576E0CE0101960E945718BE016F5F67
:1010E0007F4F80EC96E00E94FC19F82ECE0101960D
:1010F0000E94E917FF2009F46BC061E676E0CE019B
:1011000001960E945718CE0101960E94BA02CE01A4
:1011100001960E94E9176FE273E0CE0101960E94EA
:1011200057182091C4063091C50646E050E060ECA7
:1011300076E0CE0107960E943D1ABE016F5F7F4F99
:10114000CE0107960E9451027C01CE0107960E94B3
:10115000E917CE0101960E94E917F70160817181BC
:1011600070931101609310018281938190930F011C
:1011700080930E014AE0CE0101960E94BD18CE0177
:1011800001960E94BA02CE0101960E94E91760E71B
:1011900076E0CE0101960E945718CE0101960E947A
:1011A000BA02CE0101960E94E91760910E0170917A
:1011B0000F014AE0CE0101960E94BD18CE010196B2
:1011C0000E94CD02CE0101960E94E9170E94C3053C
:1011D0006FE976E080EC96E00E948D188091DC0645
:1011E00081110E9478048091DB0681110E94FC0429
:1011F0008091DA0681110E943B058091DC06811105
:1012000008C08091DB06811104C08091DA06882332
:1012100031F064EF71E080E090E00E94B411409101
:101220000A0150910B0160910C0170910D018DED3F
:1012300096E00E9416116093D4067093D5068093B1
:10124000D6069093D70626EF3AE74DE152E40E9486
:10125000581D6093D0067093D1068093D206909368
:10126000D3062091CC063091CD064091CE06509108
:10127000CF060E94D11B6B017C016091120170911D
:10128000130169517109882777FD8095982F0E9475
:10129000A41C9B01AC01C701B6010E94361C87FF4C
:1012A00011C08091D90681110DC06091100170911B
:1012B000110184EF96E00E940A0B81E08093D90629
:1012C0001092D8062091CC063091CD064091CE06E2
:1012D0005091CF066091D0067091D1068091D206D0
:1012E0009091D3060E94D11B6B017C016091120189
:1012F00070911301675E7F4F882777FD8095982F47
:101300000E94A41C9B01AC01C701B6010E94541DA0
:1013100018168CF48091D80681110DC060910E01D1
:1013200070910F0184EF96E00E940A0B1092D9068B
:1013300081E08093D80664E670E080E090E00E944F
:10134000B41162960FB6F894DEBF0FBECDBFDF9129
:10135000CF91FF90EF90DF90CF9008951F920F9262
:101360000FB60F9211242F933F934F935F936F9378
:101370007F938F939F93AF93BF93EF93FF9380914E
:10138000F80687FF05C010928500109284001AC0ED
:101390002091F806332727FD30958091F70690E0DD
:1013A000281739077CF48091F806992787FD9095D6
:1013B000FC01EE0FFF1FE80FF91FE750F94F808186
:1013C00086FD15C08091F8068F5F8093F806209106
:1013D000F806332727FD30958091F70690E028170F
:1013E0003907BCF48091F8068C305CF112C0809112
:1013F000F806992787FD9095FC01EE0FFF1FE80F77
:10140000F91FE750F94F808160E08F730E94A812A6
:10141000D9CF8091840090918500049680349C49B6
:1014200018F480E49CE905C08091840090918500C7
:10143000049690938900809388008FEF8093F8063C
:1014400038C020918400309185008091F80699275A
:1014500087FD9095FC01EE0FFF1FE80FF91FE75085
:10146000F94F81819281820F931F9093890080931D
:1014700088008091F806992787FD9095FC01EE0F72
:10148000FF1FE80FF91FE750F94F808186FF11C059
:101490008091F806992787FD9095FC01EE0FFF1FBC
:1014A000E80FF91FE750F94F808161E08F730E94C8
:1014B000A812FF91EF91BF91AF919F918F917F9172
:1014C0006F915F914F913F912F910F900FBE0F90B1
:1014D0001F9018952091F7062C30A0F431E0320FC0
:1014E0003093F706FC012083822F90E0FC01EE0F81
:1014F000FF1FE80FF91FE750F94F88EB9BE092833D
:10150000818308952FEFFC0120830895DF92EF92ED
:10151000FF920F931F93CF93DF93EC01D62E7A01A6
:10152000890188818C3008F066C061E08D2D0E94B1
:101530006F128881A82FB0E0FD01EE0FFF1FEA0FA8
:10154000FB1FE750F94F2D2D2F739081907C922B2C
:10155000908360E272E06E197F0977FF02C06D5FD1
:101560007F4F7595679575956795698340E659E056
:10157000401B510B57FF02C04D5F5F4F559547957C
:10158000559547954A836CE00E94301F9CE0899FE7
:10159000B001112420E030E0A901460F571FFA01E5
:1015A000EE0FFF1FE40FF51FE750F94F908196FDF6
:1015B00016C02F5F3F4F2C30310571F781110FC0DE
:1015C0001092800082E0809381001092850010923A
:1015D0008400B19A80916F00826080936F0088814F
:1015E00090E0FC01EE0FFF1FE80FF91FE750F94FE5
:1015F0008081806480838881DF91CF911F910F91DA
:10160000FF90EF90DF90089520E639E040E252E04D
:101610000C94860AFC0180818C3070F5918128E859
:1016200030E0291B310997FD3395220F331F220F1C
:10163000331F621773077CF0928128E532E0291B83
:10164000310997FD3395220F331F220F331F621785
:1016500073070CF49B0122503109220F331F4FB73F
:10166000F89490E0FC01EE0FFF1FE80FF91FE75020
:10167000F94F328321834FBF089580914D0790E049
:1016800020914E07821B9109089520914E07809169
:101690004D07281750F4E22FF0E0E15BF84F80810E
:1016A00090E02F5F20934E0708958FEF9FEF0895EE
:1016B000E0914E0780914D07E81730F4F0E0E15BD0
:1016C000F84F808190E008958FEF9FEF089508957F
:1016D000CF92DF92EF92FF920F931F93CF93DF93FE
:1016E0007C01CB018A0120912907222389F0EB019B
:1016F0006B01C40ED51ECC15DD0569F06991D701CB
:10170000ED91FC910190F081E02DC7010995F3CF97
:10171000642F0E94C90CC801DF91CF911F910F91D6
:10172000FF90EF90DF90CF900895CF93DF931F92BB
:10173000CDB7DEB76983209129072223D1F020910C
:101740002A07203240F021E030E0FC01338322837D
:1017500080E090E015C080912B07E82FF0E0E45D79
:10176000F84F998190838F5F80932B0780932A078E
:1017700005C061E0CE0101960E94C90C81E090E0B5
:101780000F90DF91CF910895FC011382128248EEF1
:1017900053E060E070E0448355836683778381E89B
:1017A00096E091838083089510924E0710924D0722
:1017B00010922B0710922A070C94140C862F41329A
:1017C00008F040E26FE477E00E94320C10924E077E
:1017D00080934D07089521E00C94DE0B81E0809307
:1017E000290760934C0710922B0710922A0708953F
:1017F0000C94EE0B0F93062F21E040912A076CE228
:1018000077E080914C070E94760C10922B07109283
:101810002A07109229070F91089561E00C94FA0BA2
:101820008DE197E00C94C40B1092DC0781E080936B
:10183000DA071092D90761E082E00E94A81261E005
:1018400083E00E94A812E9EBF0E080818E7F808324
:1018500080818D7F808388E48093B80085E48093C5
:10186000BC000895413208F03FC09091DC0791110F
:10187000FCCF91E09093DC072093DA072FEF2093C1
:101880006F071092B407240F2093B3079093DB07E0
:101890009091DB07880F892B8093DB078091D90714
:1018A000813041F41092D9078091DB078093BB000F
:1018B00085EC01C085EE8093BC008091DC0781300F
:1018C000E1F38091B407841710F44091B40725EB3D
:1018D00037E0FB01D9018A2F821B841718F48D9100
:1018E0008193F9CF842F089580E008950F934132BA
:1018F00008F046C09091DC079111FCCF92E09093E4
:10190000DC070093DA079FEF90936F071092B407FC
:101910004093B307FB0165EB77E0DB019A2F961B41
:10192000941718F491919D93F9CF1092DB07909141
:10193000DB07880F892B8093DB078091D9078130E3
:1019400041F41092D9078091DB078093BB0085ECAE
:1019500001C085EE8093BC00222321F08091DC073A
:101960008230E1F380916F078F3F61F080916F07C4
:10197000803251F080916F07803341F483E007C0DB
:1019800081E005C080E003C082E001C084E00F91E7
:101990000895613298F42091DC07243089F4609333
:1019A0009107FC0183E997E0DC012A2F281B261709
:1019B00018F421912D93F9CF80E0089581E00895E6
:1019C00082E0089585ED8093BC008091BC0084FD89
:1019D000FCCF1092DC07089585EC8093BC00109238
:1019E000DC0708951F920F920FB60F9211242F93C8
:1019F0003F934F935F936F937F938F939F93AF9397
:101A0000BF93EF93FF938091B900887F803609F4EC
:101A10009CC068F5883209F45BC090F4803109F409
:101A200054C038F4882309F4F5C0883009F44DC057
:101A3000F5C0883109F44CC0803209F45DC0EEC0B5
:101A4000803409F468C048F4803309F455C0883301
:101A500009F0E4C080936F07A8C0803509F44FC037
:101A6000883509F45DC0883409F0D8C0D5C08839FC
:101A700009F4C6C0A8F4883709F467C038F488367A
:101A800009F463C0803709F460C0C8C0883809F41D
:101A9000B7C0803909F45FC0803809F0BFC05BC0AF
:101AA000803B09F485C038F4803A09F466C0883A6E
:101AB00009F47EC0B3C0803C09F4A6C0883C09F498
:101AC000A3C0883B09F489C0A9C08091DB0710C07E
:101AD0009091B4078091B307981770F5E091B4071F
:101AE00081E08E0F8093B407F0E0EB54F84F8081D3
:101AF0008093BB0085EC85C080936F078DC0E0911B
:101B0000B40781E08E0F8093B4078091BB00F0E0B2
:101B1000EB54F84F80839091B4078091B3076DC068
:101B2000E091B40781E08E0F8093B4078091BB00F1
:101B3000F0E0EB54F84F80838091DA0781116CC09C
:101B400081E08093D90784EA60C083E08093DC075A
:101B500010927007CFCF80917007803208F050C08C
:101B6000E091700781E08E0F809370078091BB0039
:101B7000F0E0EF58F84F8083BDCF8091700780323E
:101B800030F4E0917007F0E0EF58F84F10820E94B7
:101B9000E20C6091700770E0E091D507F091D607F4
:101BA00081E797E00995109270070E94EC0C36C00F
:101BB00084E08093DC071092920710929107E091E5
:101BC000D707F091D807099580919107811105C039
:101BD00081E08093910710929307E091920781E052
:101BE0008E0F80939207F0E0ED56F84F808180933E
:101BF000BB009091920780919107981708F47ACFD3
:101C000085E88093BC000AC085EC8093BC001092EC
:101C1000DC0704C010926F070E94E20CFF91EF9165
:101C2000BF91AF919F918F917F916F915F914F91F4
:101C30003F912F910F900FBE0F901F901895089510
:101C4000CF92DF92EF92FF92FC0185899689481B23
:101C5000590B61097109A389B4899A01AB010E94EA
:101C6000831F6B017C018FE0F594E794D794C794B0
:101C70008A95D1F765857685882777FD8095982F99
:101C80002BE0660F771F881F991F2A95D1F72785AC
:101C90003089442737FD4095542F2C0D3D1D4E1D96
:101CA0005F1D0E945E1F2C0D3D1D4E1D5F1DCA0154
:101CB000B901FF90EF90DF90CF9008951F93CF93DD
:101CC000DF931F92CDB7DEB7162F67E770E08DE187
:101CD00097E049830E94F80B612F8DE197E00E9405
:101CE000950B4981642F8DE197E00E94950B8DE162
:101CF00097E00F90DF91CF911F910C940D0CCF9333
:101D0000C62F67E770E08DE197E00E94F80B6C2F1B
:101D10008DE197E00E94950B8DE197E00E940D0CFC
:101D200067E770E08DE197E00E94F80B41E050E03A
:101D300067E770E08DE197E00E94EB0B8DE197E0A3
:101D40000E94450BC82F8DE197E00E940D0C8C2F4F
:101D5000CF910895CF93DF93C62F67E770E08DE1B1
:101D600097E00E94F80B6C2F8DE197E00E94950B95
:101D70008DE197E00E940D0C67E770E08DE197E040
:101D80000E94F80B42E050E067E770E08DE197E0D9
:101D90000E94EB0B8DE197E00E94450BD82F80E06D
:101DA000C82F8DE197E00E94450BC82BD92B8DE100
:101DB00097E00E940D0CCE01DF91CF910895CF9353
:101DC000DF93EC01643008F063E068838DE197E015
:101DD0000E94D40B60EDCE010E947F0E853509F084
:101DE00044C06AEACE010E94AA0E9A8389836CEAF3
:101DF000CE010E94AA0E9C838B836EEACE010E94C4
:101E0000AA0E9E838D8360EBCE010E94AA0E9A8B50
:101E1000898B62EBCE010E94AA0E9C8B8B8B64EBAC
:101E2000CE010E94AA0E9E8B8D8B66EBCE010E9486
:101E3000AA0E98878F8368EBCE010E94AA0E9A871C
:101E400089876AEBCE010E94AA0E9C878B876CEB78
:101E5000CE010E94AA0E9E878D876EEBCE010E9456
:101E6000AA0E988B8F8781E001C080E0DF91CF912F
:101E70000895CF93DF93EC014EE264EF0E945E0E73
:101E800065E070E080E090E00E94B41166EFCE0162
:101E9000DF91CF910C94AA0ECF93DF93EC010E94B7
:101EA000390FAC0160E070E0CE010E94200E685F47
:101EB0007F4F8F4F9F4F34E0959587957795679526
:101EC0003A95D1F70E94A41C20E030E040E251E4B2
:101ED0000E943A1CDF91CF910895CF92DF92EF924A
:101EE000FF92CF93DF93EC0148814295440F440F5A
:101EF000407C4C5C64EF0E945E0E8881811105C0BD
:101F000065E070E080E090E012C0813029F468E084
:101F100070E080E090E00BC0823029F46EE070E069
:101F200080E090E004C06AE170E080E090E00E9410
:101F3000B41166EFCE010E94AA0E6C01E12CF12CC7
:101F4000FE2CED2CDC2CCC2468EFCE010E947F0E01
:101F5000A7019601282BCA01B901488128E030E089
:101F6000241B310904C096958795779567952A9526
:101F7000D2F7DF91CF91FF90EF90DF90CF9008954F
:101F80002F923F924F925F926F927F928F929F9289
:101F9000AF92BF92CF92DF92EF92FF920F931F9377
:101FA000CF93DF93CDB7DEB72A970FB6F894DEBF95
:101FB0000FBECDBF9A8789870E94390F8C01898512
:101FC0009A850E946D0F6D837E838F839887A80109
:101FD00060E070E089859A850E94200E4B015C01CB
:101FE00080EA881A8FE0980AA108B108A501940137
:101FF000C501B4010E94201F2B013C010CE0759427
:102000006794579447940A95D1F7A985BA85119694
:102010002D903C9012971C9115960D90BC91A02D7F
:102020000E948E1F6B017C018DE0F594E794D7949C
:10203000C7948A95D1F7E985FA85A781B085A30170
:1020400092010E948E1FBB2797FDB095AB2FC80E43
:10205000D91EEA1EFB1EF2E0CF0ED11CE11CF11CC2
:1020600032E0F594E794D794C7943A95D1F780E895
:10207000D80EE11CF11CE985FA85A189B289A70176
:1020800096010E94831FDC01CB014FE0B695A79516
:10209000979587954A95D1F789839A83AB83BC83BB
:1020A0006101EE24D7FCE094FE2C52E0CC0CDD1C48
:1020B000EE1CFF1C5A95D1F7A185B285A3019201B0
:1020C0000E948E1F2B013C016BE07594679457941E
:1020D00047946A95D1F7A381B481A50194010E9428
:1020E0008E1FEBE09595879577956795EA95D1F7E3
:1020F000460E571E681E791EC40CD51CE61CF71C24
:10210000012E04C0CC0CDD1CEE1CFF1C0A94D2F77F
:1021100092E0C90ED11CE11CF11CC701B60124E0FC
:1021200030E040E050E00E945E1F8D819E81AF81D3
:10213000B885821B930BA40BB50B9C01AD0160E528
:1021400073EC80E090E004C096958795779567954D
:102150001A95D2F70E94201F97FD0DC0660F771FBA
:10216000881F991F29813A814B815C810E943C1F05
:1021700049015A010CC029813A814B815C810E943E
:102180003C1F49015A01880C991CAA1CBB1C9927A9
:10219000B7FC9A958B2D7A2D692D9B01AC010E947D
:1021A000201F9B01AC01AEEDBBE00E94831F6C01C0
:1021B000FF24D7FCF094EF2CA3E4B3EEA501940127
:1021C0000E94911FBB2797FDB095AB2FC80ED91E5B
:1021D000EA1EFB1E9FECC90E9EE0D91EE11CF11CFD
:1021E000A4E0F594E794D794C794AA95D1F7C80CC6
:1021F000D91CEA1CFB1CC701B6012A960FB6F8943D
:10220000DEBF0FBECDBFDF91CF911F910F91FF9029
:10221000EF90DF90CF90BF90AF909F908F907F9086
:102220006F905F904F903F902F900895CF93DF93E2
:1022300000D000D0CDB7DEB79A01AB0129833A8335
:102240004B835C830E94C00F0E94A41C29813A81A9
:102250004B815C810E943A1C21E03EED42E45EE34A
:102260000E94BB1D9B01AC0160E070E080E89FE331
:102270000E94D11B20E03AE24DE257E40E94581D33
:102280000F900F900F900F90DF91CF9108951F92B4
:102290000F920FB60F9211242F933F938F939F931A
:1022A000AF93BF938091DE079091DF07A091E00785
:1022B000B091E1073091DD0723E0230F2D3720F4A3
:1022C0000196A11DB11D05C026E8230F0296A11D90
:1022D000B11D2093DD078093DE079093DF07A09365
:1022E000E007B093E1078091E2079091E307A091A6
:1022F000E407B091E5070196A11DB11D8093E207A7
:102300009093E307A093E407B093E507BF91AF91E3
:102310009F918F913F912F910F900FBE0F901F9023
:1023200018953FB7F8948091E2079091E307A09148
:10233000E407B091E50726B5A89B05C02F3F19F02B
:102340000196A11DB11D3FBF6627782F892F9A2FB7
:10235000620F711D811D911D42E0660F771F881F5E
:10236000991F4A95D1F70895CF92DF92EF92FF928D
:10237000CF93DF936B017C010E949111EB01C1149B
:10238000D104E104F10489F00E948D1A0E94911198
:102390006C1B7D0B683E734090F381E0C81AD10836
:1023A000E108F108C851DC4FEACFDF91CF91FF90EF
:1023B000EF90DF90CF900895789484B5826084BDCB
:1023C00084B5816084BD85B5826085BD85B5816039
:1023D00085BDEEE6F0E0808181608083E1E8F0E099
:1023E0001082808182608083808181608083E0E8C8
:1023F000F0E0808181608083E1E9F0E080818260AB
:102400008083808181608083E0E9F0E08081816069
:102410008083E1ECF0E08081846080838081826051
:102420008083808181608083E3ECF0E08081816043
:102430008083E0ECF0E0808182608083E2ECF0E079
:10244000808181608083EAE7F0E08081846080831E
:1024500080818260808380818160808380818068C8
:102460008083089590E0FC013197EF30F105B0F5DD
:10247000EA5AFF4F0C947D1F809180008F7703C034
:10248000809180008F7D80938000089580918000EE
:10249000877FF9CF84B58F7702C084B58F7D84BDE7
:1024A0000895809190008F7707C0809190008F7D74
:1024B00003C080919000877F809390000895809161
:1024C000C0008F7703C08091C0008F7D8093C000D3
:1024D00008958091C200877F8093C2000895CF93B2
:1024E000DF9390E0FC01E659FE4F2491FC01E85790
:1024F000FE4F8491882349F190E0880F991FFC01D9
:10250000EC54FE4FA591B4918A559E4FFC01C591A4
:10251000D4919FB7611108C0F8948C9120958223C3
:102520008C93888182230AC0623051F4F8948C9194
:10253000322F309583238C938881822B888304C02B
:10254000F8948C91822B8C939FBFDF91CF9108954B
:102550000F931F93CF93DF931F92CDB7DEB7282F32
:1025600030E0F901E45BFE4F8491F901E659FE4F3A
:102570001491F901E857FE4F04910023C9F0882314
:1025800021F069830E9432126981E02FF0E0EE0FA2
:10259000FF1FEA55FE4FA591B4919FB7F8948C9117
:1025A000611103C01095812301C0812B8C939FBFC3
:1025B0000F90DF91CF911F910F910895CF93DF93EB
:1025C0001F92CDB7DEB76983DC01ED91FC910280EB
:1025D000F381E02D41E050E0BE016F5F7F4F099530
:1025E0000F90DF91CF910895CF93DF93EC018C850D
:1025F0009D8597FF05C082E00E9414159D878C87FA
:102600008C859D85DF91CF91089583E00C946917A7
:10261000FC018485958597FD06C082E00E94BC146C
:1026200090E00196089582E00E94BC1490E0089525
:10263000FC018485958597FD05C02FEF3FEF358719
:102640002487089582E00C941415CF93DF93EC0156
:1026500080911B01882331F083E00E9445151816F4
:10266000190634F081E090E09B838A8380E090E05B
:10267000DF91CF910895FC0120812E5F208342E4F9
:1026800050E062EC71E080E80C94E015FC0181817F
:102690009081913A59F4813209F03CC047E050E012
:1026A00064E171E080E00E94E01543C0913291F551
:1026B000803239F467E070E084E191E00E94111605
:1026C00006C0823209F035C0828180931B0180915F
:1026D000140190911501A0911601B0911701803B52
:1026E0009440A105B105C1F480911B0180FD14C087
:1026F00087E797E790930108809300082BE088E133
:1027000090E00FB6F894A895809360000FBE2093D8
:1027100060000FC080E0089588E10FB6F8948093C0
:102720006000109260000FBEA895109201081092F0
:10273000000881E008952FEF3FEFFC0135872487E3
:102740000895CF93C0911B016AE070E080E090E0B3
:102750000E94B41181E0C11101C080E0CF910895C1
:102760001092E9071092E80788EE93E0A0E0B0E04D
:102770008093EA079093EB07A093EC07B093ED07E3
:1027800081E996E09093E7078093E6078FEF9FEF4C
:102790009093F3078093F207089508950E94DC1147
:1027A0000E94CD1386E398E00E94C9170E944F064D
:1027B000C0E0D0E00E9414072097E1F30E940000DF
:1027C000F9CFCF92DF92EF92FF920F931F93CF93A7
:1027D000DF936C017A01EB01E60EF71E00E010E0DA
:1027E000CE15DF0561F06991D601ED91FC91019064
:1027F000F081E02DC6010995080F191FF1CFC8011E
:10280000DF91CF911F910F91FF90EF90DF90CF90CC
:1028100008956115710581F0DB010D900020E9F745
:10282000AD0141505109461B570BDC01ED91FC9164
:102830000280F381E02D099480E090E00895DC01AE
:10284000ED91FC91DB0114964D915C9115976D9182
:102850007C910280F381E02D09946DE976E00C947F
:1028600009140F931F93CF93DF93EC010E941F1461
:102870008C01CE010E942D14800F911FDF91CF910A
:102880001F910F91089540913A0850913B08209173
:1028900038083091390842175307B4F49091E80092
:1028A0009570E1F39091E80092FD19C08093F100DA
:1028B00080913A0890913B0801968F739927892B54
:1028C00019F48EEF8093E80080913A0890913B08CC
:1028D000019690933B0880933A0881E0089580E048
:1028E0000895CF92DF92FF920F931F93CF93DF93C0
:1028F0001F92CDB7DEB7082F162F862F880F8E5F59
:1029000099830E94431483E00E944314F02EC02E4A
:102910009981D92E8C2D8F19811778F4F601849125
:102920000E944314082F80E00E9443148023FFEF8D
:10293000CF1ADF0A8111EECF01C081E00F90DF9145
:10294000CF911F910F91FF90DF90CF90089561502C
:1029500030F02091F100FC0120830196F8CF289AF5
:1029600084E680933D0808952FB7FC012083F894F6
:1029700067706093E9000895CF93DF931F92CDB7FE
:10298000DEB7682FCE0101960E94B4148091F20048
:1029900099819FBF0F90DF91CF910895FF920F9380
:1029A0001F93CF93DF9300D0CDB7DEB7F62E8A0109
:1029B00090913C08992311F057FF03C08FEF9FEFD0
:1029C0002BC0682FCE0101967A830E94B4148091A7
:1029D000F20090E0A8017A81801791070CF4AC0115
:1029E000EF2DF72FF40E84E6FE1639F0289A809327
:1029F0003D089091F1009193F7CF4115510521F0D9
:102A00008091F200882321F089818FBFCA0104C020
:102A10008BE68093E800F8CF0F900F90DF91CF9175
:102A20001F910F91FF900895CF93DF931F92CDB721
:102A3000DEB741E050E0BE016F5F7F4F0E94CE14D1
:102A4000019719F4898190E002C08FEF9FEF0F90FA
:102A5000DF91CF910895CF93DF931F92CDB7DEB76B
:102A6000682FCE0101960E94B4149091E800892F3E
:102A7000807295FF04C09091F20080E4891B9981D7
:102A80009FBF0F90DF91CF9108956F927F928F92A9
:102A90009F92AF92BF92CF92DF92EF92FF920F93ED
:102AA0001F93CF93DF931F92CDB7DEB7782E7B01B4
:102AB000C42EB52E80913C08882369F0042F152F71
:102AC0008AEFD82E872D8072982E9AE3A92E872D13
:102AD0008074882E11C08FEF9FEF57C0872D0E9402
:102AE0002B15682E81110CC0DA94A9F361E070E017
:102AF00080E090E00E94B4110115110579F73BC008
:102B0000282F30E0021713070CF4602E672DCE013A
:102B100001960E94B4148091E80085FF29C0262DFB
:102B200030E0021B130B992039F06A948FEF68167E
:102B3000B1F01092F100F9CFF701862D77FE07C0B2
:102B4000815058F094919093F1003196F9CF8150D3
:102B500020F091919093F100FACFE20EF31E809154
:102B6000E80085FF0FC00115110511F481100AC09E
:102B700089818FBFC1CF5D9A84E680933E088C2DFA
:102B80009B2D03C0A092E800F3CF0F90DF91CF916F
:102B90001F910F91FF90EF90DF90CF90BF90AF907B
:102BA0009F908F907F906F9008951092E9001092FF
:102BB0003B0810923A08909339088093380808959A
:102BC000CF92DF92FF920F931F93CF93DF9300D0AA
:102BD000CDB7DEB7F82E8A016B0101151105B1F0F2
:102BE000F601F7FE02C0849101C0808149835A83B7
:102BF0000E94431401501109FFEFCF1ADF0A4981E7
:102C00005A818111EACF8FEF9FEF01C0CA010F9067
:102C10000F90DF91CF911F910F91FF90DF90CF9098
:102C200008951F93CF93DF931F92CDB7DEB7162F72
:102C30002091E80022FFFCCF612F79830E94A71426
:102C40008BEF8093E800812F7981972F0F90DF9190
:102C5000CF911F910895CF93DF931F92CDB7DEB729
:102C60001982CE0101960E943B13CE0101960E946B
:102C7000AC1A898190E00F90DF91CF9108951F9257
:102C80000F920FB60F921124EF92FF920F931F93A2
:102C90002F933F934F935F936F937F938F939F9364
:102CA000AF93BF93EF93FF93CF93DF93CDB7DEB78F
:102CB0006297DEBFCDBF1092E9008091E80083FFEC
:102CC000EBC068E0CE010A960E94A71482EF8093C1
:102CD000E8009A8597FF05C08091E80080FFFCCF4F
:102CE00003C08EEF8093E800892F807609F0B9C089
:102CF0008B85811105C01092F1001092F100C5C0C2
:102D0000282F2D7F213009F4C0C0853049F48091EF
:102D1000E80080FFFCCF8C8580688093E300B5C01D
:102D2000863009F076C02D85E888F988223071F563
:102D300080E090E02A8B0E94D5150E942B1699E026
:102D40008E010F5F1F4FF801392F11923A95E9F765
:102D500099832A892A8391E09E8390E898879AEF45
:102D6000998720913A0830913B08275F3F4F3C8379
:102D70002B838D83C7010E94D51549E050E0B8012F
:102D800080E00E94E0150E942B167FC0C7012A8BAD
:102D90000E94D5152A89223241F482E290E00E94F5
:102DA000B71A892B09F071C074C0213069F4888981
:102DB0009989089711F42093370880913708811179
:102DC00018C06BE172E01AC0233009F062C08C8534
:102DD000882391F0823021F46DE089E392E006C00F
:102DE000813009F056C06BE08DE292E00E947114D0
:102DF0004AC069E072E002C067E472E061157105E3
:102E000009F447C0FB01449150E080E80E94E015BE
:102E10003CC0873009F43DC0883021F481E08093C4
:102E2000F10033C0893089F5937099F5E5E0F2E05F
:102E300081E021E096E38093E9002093EB00349158
:102E40003093EC009093ED008F5F3196853099F7C9
:102E50008EE78093EA001092EA008C8580933C080C
:102E600014C0888999890E94D5158E85811105C065
:102E7000CE010A960E94461306C0823051F4CE015C
:102E80000A960E94DF1A882321F08EEF8093E800D3
:102E900003C081E28093EB0062960FB6F894DEBF28
:102EA0000FBECDBFDF91CF91FF91EF91BF91AF9159
:102EB0009F918F917F916F915F914F913F912F9152
:102EC0001F910F91FF90EF900F900FBE0F901F90EA
:102ED00018958093E9008091F200882319F08AE325
:102EE0008093E80008951F920F920FB60F9211245D
:102EF0002F933F934F935F936F937F938F939F9302
:102F0000AF93BF93EF93FF938091E1001092E100A4
:102F100083FF0FC01092E90091E09093EB001092B4
:102F2000EC0092E39093ED0010923C0898E09093AF
:102F3000F00082FF1DC083E00E94691780913E0867
:102F4000882339F080913E08815080933E08882381
:102F500069F080913D08882359F080913D088150A7
:102F600080933D08811104C0289802C05D98F1CF7C
:102F7000FF91EF91BF91AF919F918F917F916F9151
:102F80005F914F913F912F910F900FBE0F901F9027
:102F9000189510923C0881E08093D70080EA8093D6
:102FA000D80082E189BD09B400FEFDCF61E070E088
:102FB00080E090E00E94B41180E98093D8008CE01A
:102FC0008093E2001092E000559A209A5D9828982C
:102FD0000895FC01808191810C945E20CF93DF9352
:102FE000EC0188819981009711F00E945E2019827E
:102FF00018821D821C821B821A82DF91CF91089554
:103000000F931F93CF93DF93EC018B016F5F7F4F83
:10301000888199810E94ED20009731F099838883FF
:103020001B830A8381E001C080E0DF91CF911F9173
:103030000F910895CF93DF93EC0188819981892BBB
:1030400029F08A819B818617970760F4CE010E9440
:103050000018882341F08C819D81892B19F4E88127
:10306000F981108281E0DF91CF910895EF92FF9274
:103070000F931F93CF93DF93EC017B018A01BA0179
:103080000E941A18811104C0CE010E94EE1707C0D9
:103090001D830C83B701888199810E94F021CE01A4
:1030A000DF91CF911F910F91FF90EF900895FC0158
:1030B00011821082138212821582148261157105A9
:1030C00059F0FB0101900020E9F7AF01415051098F
:1030D000461B570B0C9436180895CF93DF93EC01E1
:1030E000FB018617970761F0608171816115710599
:1030F00029F0448155810E94361802C00E94EE17C3
:10310000CE01DF91CF910895FC01118210821382CC
:103110001282158214820C946D18CF93DF93EC0108
:103120006115710561F0FB0101900020E9F7AF0125
:1031300041505109461B570B0E94361802C00E948D
:10314000EE17CE01DF91CF910895CF93DF9300D09A
:10315000CDB7DEB7FC011182108213821282158274
:10316000148269831A82BE016F5F7F4F0E948D189F
:103170000F900F90DF91CF9108950F931F93CF93EE
:10318000DF93CDB7DEB762970FB6F894DEBF0FBE00
:10319000CDBF8C01CB01F801118210821382128203
:1031A0001582148250E0BE016F5F7F4F0E941F2284
:1031B000BE016F5F7F4FC8010E948D1862960FB6E7
:1031C000F894DEBF0FBECDBFDF91CF911F910F915D
:1031D00008950F931F93CF93DF93CDB7DEB7A297D8
:1031E0000FB6F894DEBF0FBECDBF8C01CB01BA0184
:1031F000F80111821082138212821582148230E04B
:10320000AE014F5F5F4F0E943522BE016F5F7F4F5F
:10321000C8010E948D18A2960FB6F894DEBF0FBEAB
:10322000CDBFDF91CF911F910F910895EF92FF9243
:103230000F931F93CF93DF93CDB7DEB7A1970FB650
:10324000F894DEBF0FBECDBF7C01CB01BA01F70100
:1032500011821082138212821582148242E0420F80
:103260008E010F5F1F4F0E94A51FBC01C7010E9466
:103270008D18A1960FB6F894DEBF0FBECDBFDF91BB
:10328000CF911F910F91FF90EF900895EF92FF92D1
:103290000F931F93CF93DF93EC017B010C811D8172
:1032A0006115710511F480E016C04115510591F0CA
:1032B000040F151FB8010E941A188823A1F3288152
:1032C00039818C819D81B701820F931F0E94F0216B
:1032D0001D830C8381E0DF91CF911F910F91FF90AF
:1032E000EF900895FB0144815581608171810C94B8
:1032F0004619CF93DF9300D0CDB7DEB769831A822A
:1033000041E050E0BE016F5F7F4F0E9446190F9071
:103310000F90DF91CF910895CF93DF93EC01FB01E4
:1033200044815581608171810E944619811103C0D9
:10333000CE010E94EE17CE01DF91CF910895CF9379
:10334000DF93EC016115710569F0FB01019000202C
:10335000E9F7AF0141505109461B570B0E9446192E
:10336000811103C0CE010E94EE17CE01DF91CF91F3
:103370000895FC0124813581232B31F421E061156E
:103380007105A1F0FB0108C0FC01808191816115EC
:10339000710531F421E0FC018081882339F005C0FA
:1033A0000E94E72121E0892B09F020E0822F089577
:1033B000FA01DB0114964D915C911597DC0114968E
:1033C0002D913C911597241B350B2E173F0788F044
:1033D0008D919C91009769F0DB016D917C91611555
:1033E000710539F08E0F9F1F0E94F72121E0892B74
:1033F00009F020E0822F0895FC0144815581FB01F2
:10340000248135814217530720F040E050E00C94AE
:10341000D81980E00895FC018481958168177907A7
:1034200020F480819181009729F410923F088FE366
:1034300098E00895860F971F0895CF93DF93FC01BE
:10344000848195814817590778F4C081D181FB01A7
:1034500060817181CE01840F951F0E940522009723
:1034600019F08C1B9D0B02C08FEF9FEFDF91CF9166
:10347000089540E050E00C941D1ABF92CF92DF9265
:10348000EF92FF920F931F93CF93DF936C017B0119
:10349000EA0189012417350720F48D2FE901042F53
:1034A000182F6FE976E0C6010E945718D7011496CD
:1034B0008D919C911597C817D907C8F4801791076B
:1034C00008F48C01D701ED91FC911197E00FF11FE9
:1034D000B08010826D917C916C0F7D1FC6010E949F
:1034E0008D18D701ED91FC91E00FF11FB082C6015C
:1034F000DF91CF911F910F91FF90EF90DF90CF90D0
:10350000BF900895FC0180819181009711F00C9487
:10351000B72160E070E0CB0108950895FF920F930A
:103520001F93CF93DF93EC01F62EE881F98104809D
:10353000F581E02D09958C01E881F9810680F781FC
:10354000E02D6F2DCE010995C8019927DF91CF910C
:103550001F910F91FF900895FC0120812F5F208320
:1035600049E150E06BEC72E080E80C94E01545E630
:1035700050E064EE72E080E80C94E015EF92FF9268
:103580000F931F93CF93DF931F92CDB7DEB789833D
:103590008B017A0141E050E0BE016F5F7F4F84E014
:1035A0000E944515A701B80184E40E9445150F90BB
:1035B000DF91CF911F910F91FF90EF900895FC0143
:1035C00091818081813A31F481E0913091F09330A2
:1035D00089F411C0813271F49B3021F4828180938F
:1035E0001D0105C09A3031F4828180931C0181E075
:1035F0000895089580E0089548E050E082E00C943A
:10360000BE1ACF93DF93DC01683818F0E8E7E60FC5
:1036100025C0E62FF0E067FF11C0E058F10981E016
:1036200090E001C0880FEA95EAF714969C911497F0
:10363000982B14969C931497E0E010C0E55BFD4F27
:10364000E491EE2309F440C0E7FF08C014968C9182
:103650001497826014968C931497EF7716968C913A
:1036600016978E1741F117968C9117978E1719F1AF
:1036700018968C9118978E17F1F019968C911997CE
:103680008E17C9F01A968C911A978E17A1F01B9677
:103690008C911B978E1779F080E090E0ED01C80FB8
:1036A000D91F2E81211102C0EE8305C001968630FC
:1036B0009105A1F709C0BD016C5F7F4FCD010E944C
:1036C000FC1A81E090E008C081E090E013969C93A2
:1036D0008E93129780E090E0DF91CF910895683843
:1036E00018F0E8E7E60F25C0E62FF0E067FF12C00C
:1036F000E058F10921E030E001C0220FEA95EAF735
:103700002095DC0114963C911497322314963C9337
:10371000E0E00FC0E55BFD4FE491EE2329F1E7FF08
:1037200008C0DC0114962C9114972D7F14962C93CD
:10373000EF7720E030E0EE2351F0DC01A20FB31F61
:1037400016964C9116974E1302C016961C922F5F38
:103750003F4F2630310579F7BC016C5F7F4F0E94E7
:10376000FC1A81E090E0089580E090E00895FC016B
:103770001682178210861186128613861482BC0167
:103780006C5F7F4F0C94FC1A10924C081092430807
:103790001092420880EB96E0909341088093400895
:1037A00008955058BB27AA270ED044C135D130F018
:1037B0003AD120F031F49F3F11F41EF42AC10EF4E7
:1037C000E095E7FB20C1E92F46D180F3BA176207E5
:1037D00073078407950718F071F49EF55EC10EF427
:1037E000E0950B2EBA2FA02D0B01B90190010C0111
:1037F000CA01A0011124FF27591B99F0593F50F429
:10380000503E68F11A16F040A22F232F342F442780
:10381000585FF3CF469537952795A795F040539578
:10382000C9F77EF41F16BA0B620B730B840BBAF048
:103830009150A1F0FF0FBB1F661F771F881FC2F7B3
:103840000EC0BA0F621F731F841F48F487957795C7
:103850006795B795F7959E3F08F0B3CF9395880F7E
:1038600008F09927EE0F979587950895A8D008F44A
:1038700081E008950CD0DEC0D6D040F0CDD030F03D
:1038800021F45F3F19F0BFC0511108C1C2C0E3D09D
:1038900098F39923C9F35523B1F3951B550BBB2717
:1038A000AA2762177307840738F09F5F5F4F220FC4
:1038B000331F441FAA1FA9F333D00E2E3AF0E0E8BD
:1038C00030D091505040E695001CCAF729D0FE2F09
:1038D00027D0660F771F881FBB1F2617370748079B
:1038E000AB07B0E809F0BB0B802DBF01FF27935851
:1038F0005F4F2AF09E3F510568F085C0CFC05F3F03
:10390000ECF3983EDCF3869577956795B795F79538
:103910009F5FC9F7880F911D9695879597F9089530
:10392000E1E0660F771F881FBB1F621773078407CC
:10393000BA0720F0621B730B840BBA0BEE1F88F7DB
:10394000E0950895E89409C097FB3EF49095809522
:10395000709561957F4F8F4F9F4F9923A9F0F92F55
:1039600096E9BB279395F695879577956795B795D3
:10397000F111F8CFFAF4BB0F11F460FF1BC06F5FB9
:103980007F4F8F4F9F4F16C0882311F096E911C0CB
:10399000772321F09EE8872F762F05C0662371F0EC
:1039A00096E8862F70E060E02AF09A95660F771F00
:1039B000881FDAF7880F9695879597F90895990FDC
:1039C0000008550FAA0BE0E8FEEF16161706E807E9
:1039D000F907C0F012161306E407F50798F0621B0A
:1039E000730B840B950B39F40A2661F0232B242BDF
:1039F000252B21F408950A2609F4A140A6958FEFFE
:103A0000811D811D089597F99F6780E870E060E04F
:103A100008959FEF80EC089500240A941616170667
:103A200018060906089500240A94121613061406AF
:103A300005060895092E0394000C11F4882352F012
:103A4000BB0F40F4BF2B11F460FF04C06F5F7F4FCA
:103A50008F4F9F4F089557FD9058440F551F59F0B1
:103A60005F3F71F04795880F97FB991F61F09F3F6B
:103A700079F087950895121613061406551FF2CF94
:103A80004695F1DF08C0161617061806991FF1CFE4
:103A900086957105610508940895E894BB2766270B
:103AA0007727CB0197F908958ADF08F48FEF0895FF
:103AB0000BD0C0CFB1DF28F0B6DF18F0952309F0A6
:103AC000A2CFA7CF1124EACFC6DFA0F3959FD1F3F1
:103AD000950F50E0551F629FF001729FBB27F00DBC
:103AE000B11D639FAA27F00DB11DAA1F649F662711
:103AF000B00DA11D661F829F2227B00DA11D621F60
:103B0000739FB00DA11D621F839FA00D611D221F19
:103B1000749F3327A00D611D231F849F600D211DFD
:103B2000822F762F6A2F11249F5750408AF0E1F0A0
:103B300088234AF0EE0FFF1FBB1F661F771F881FE9
:103B400091505040A9F79E3F510570F05CCFA6CF31
:103B50005F3FECF3983EDCF3869577956795B795D4
:103B6000F795E7959F5FC1F7FE2B880F911D9695FE
:103B7000879597F90895FA01EE0FFF1F30962105FA
:103B8000310599F16115710561F48038BFE39B0738
:103B900049F168949038810561F08038BFEF9B0748
:103BA00041F0992342F5FF3FE1053105210511F16F
:103BB000E8940894E795D901AA2329F4AB2FBE2FE6
:103BC000F85FD0F310C0FF5F70F4A695E0F7F73907
:103BD00050F019F0FF3A38F49F779F930CD00F9074
:103BE00007FC905808953EF014CF60E070E080E844
:103BF0009FE308954FE79F775F934F933F932F93F2
:103C00009ED02F913F914F915F9152DF05C019F4E3
:103C10000EF0F9CE42CFFDCE26DFC8F39638C0F7BE
:103C200007F80F92E8942BE33AEA48EB5FE74EDFA0
:103C30000F920F920F924DB75EB70F92C0D0EAEC81
:103C4000F0E016D04F915F91EF91FF91E595EE1F57
:103C5000FF1F49F0FE57E0684427EE0F441FFA9516
:103C6000E1F74195550B32D00F9007FE26C008951D
:103C7000DF93CF931F930F93FF92EF92DF927B011D
:103C80008C01689405C0DA2EEF011EDFFE01E89476
:103C9000A5912591359145915591AEF3EF0193DDB5
:103CA000FE019701A801DA9479F7DF90EF90FF9079
:103CB0000F911F91CF91DF9108959B01AC0160E0BE
:103CC00070E080E89FE3D6CD9ECEACC0CCDEE8F3BA
:103CD0009923D9F3940F511DBBF39150504094F0A8
:103CE00059F0882332F0660F771F881F915050409B
:103CF000C1F79E3F510544F7880F911D9695879512
:103D000097F908955F3FACF0983E9CF0BB278695ED
:103D100077956795B79508F4B1609395C1F7BB0F98
:103D200058F711F460FFE8CF6F5F7F4F8F4F9F4FC1
:103D3000E3CFB4CE0EF076C06CCE689464CE93DE42
:103D4000C8F39923D1F3C6F3DF93CF931F930F9357
:103D5000FF92C92FDD2788232AF02197660F771F4E
:103D6000881FDAF720E030E040E85FEB9FE3883916
:103D700020F0803E30F021968F7714DDE2EFF0E006
:103D800003C010DDEFE1F1E073DF8B01BE01EC0158
:103D9000FB2E6F5771097595771F880B990BD4DD32
:103DA00028E132E741E35FE38FDEAF2D9801AE01FA
:103DB000FF900F911F91CF91DF9105DD3BCEFA016E
:103DC000DC01AA0FBB1F9B01AC01BF5728F42227BF
:103DD0003327442750781FC0B75188F4AB2F0024F5
:103DE000469537952795011CA395D2F3002069F0DD
:103DF000220F331F441FB395DAF30DD0D2CC6130BC
:103E00007105A0E88A07B94630F49B01AC0166272A
:103E1000772788279078309621F02083318342835A
:103E2000538308959F3F31F0915020F48795779503
:103E30006795B795880F911D9695879597F9089581
:103E4000DB018F939F930E94831FBF91AF91A29F2D
:103E5000800D911DA39F900DB29F900D1124089588
:103E6000991B79E004C0991F961708F0961B881FCC
:103E70007A95C9F780950895A1E21A2EAA1BBB1B5B
:103E8000FD010DC0AA1FBB1FEE1FFF1FA217B30726
:103E9000E407F50720F0A21BB30BE40BF50B661F3C
:103EA000771F881F991F1A9469F760957095809500
:103EB00090959B01AC01BD01CF010895052E97FBA4
:103EC0001EF400940E94751F57FD07D00E943C1FEE
:103ED00007FC03D04EF40C94751F50954095309517
:103EE00021953F4F4F4F5F4F089590958095709566
:103EF00061957F4F8F4F9F4F0895EE0FFF1F0590E5
:103F0000F491E02D09940E94961FA59F900DB49FF7
:103F1000900DA49F800D911D11240895B7FF0C945E
:103F2000831F0E94831F821B930B0895A29FB001E1
:103F3000B39FC001A39F700D811D1124911DB29FDD
:103F4000700D811D1124911D0895EF920F931F9301
:103F5000CF93DF93E80147FF02C034E101C034E0B2
:103F6000E42FFF27E7FDF095F7FF03C0F195E195FA
:103F7000F109E32E022F2E2FAE010E94B622CE01B0
:103F8000DF91CF911F910F91EF900895CF93DF9321
:103F90008230910510F482E090E0E0914F08F091BA
:103FA000500820E030E0A0E0B0E0309739F14081E7
:103FB000518148175907B8F04817590771F48281A1
:103FC0009381109729F013969C938E9312972CC08F
:103FD0009093500880934F0827C02115310531F088
:103FE0004217530718F0A901DB0101C0EF019A0144
:103FF000BD01DF010280F381E02DD7CF211531050E
:10400000F9F0281B390B2430310580F48A819B811B
:104010006115710521F0FB019383828304C09093A5
:10402000500880934F08FE01329644C0FE01E20F13
:10403000F31F8193919322503109398328833AC029
:1040400020914D0830914E08232B41F4209102011C
:104050003091030130934E0820934D0820910001C8
:10406000309101012115310541F42DB73EB7409142
:10407000040150910501241B350BE0914D08F0918E
:104080004E08E217F307A0F42E1B3F0B2817390741
:1040900078F0AC014E5F5F4F2417350748F04E0FA4
:1040A0005F1F50934E0840934D088193919302C037
:1040B000E0E0F0E0CF01DF91CF910895CF93DF935F
:1040C000009709F487C0FC01329713821282C091D5
:1040D0004F08D0915008209781F420813181280F1A
:1040E000391F80914D0890914E088217930779F5FA
:1040F000F0934E08E0934D086DC0DE0120E030E003
:10410000AE17BF0750F412964D915C9113979D0125
:104110004115510509F1DA01F3CFB383A283408140
:104120005181840F951F8A179B0771F48D919C9183
:104130001197840F951F02969183808312968D911B
:104140009C911397938382832115310529F4F09371
:104150005008E0934F083EC0D9011396FC93EE93AC
:1041600012974D915D91A40FB51FEA17FB0779F4E3
:1041700080819181840F951F0296D90111969C939D
:104180008E938281938113969C938E931297E0E095
:10419000F0E08A819B81009719F0FE01EC01F9CFD4
:1041A000CE01029628813981820F931F20914D08FC
:1041B00030914E082817390769F4309729F4109286
:1041C000500810924F0802C013821282D0934E08FA
:1041D000C0934D08DF91CF910895A0E0B0E0E3EFE8
:1041E000F0E20C942025EC01CB01209719F40E94F9
:1041F000C61FB8C0FE01E60FF71F9E01225031090D
:10420000E217F30708F4ACC0D9010D911C91119786
:1042100006171707B8F00530110508F49FC0A8016C
:10422000445051094617570708F498C00250110925
:10423000061B170B019311936D937C93CF010E9482
:104240005E208CC05B01A01AB10A4E01800E911E47
:10425000A0914F08B0915008612C712C60E070E083
:10426000109709F449C0A815B905C9F5ED90FC905F
:104270001197670142E0C40ED11CCA14DB0478F127
:1042800047018A189B08640142E0C40ED11C1296B3
:10429000BC9012971396AC91B5E0CB16D10440F0C8
:1042A000B282A38391828082D9018D939C9309C0AD
:1042B0000E5F1F4F0E0D1F1DF90111830083EB2DA3
:1042C000FA2F6115710531F0DB011396FC93EE9323
:1042D000129744C0F0935008E0934F083FC06D918F
:1042E0007C9111976616770608F43B01BD01129682
:1042F0000D90BC91A02DB4CF60914D0870914E08E7
:1043000068157905E9F468167906D0F44091000142
:10431000509101014115510541F44DB75EB76091CF
:10432000040170910501461B570BE417F507C0F413
:10433000F0934E08E0934D08F901918380830EC0FD
:104340000E94C61F7C01009759F0A801BE010E947F
:10435000DE21CE010E945E20C70104C0CE0102C052
:1043600080E090E0CDB7DEB7EEE00C943C251F93E3
:10437000FC0199278827BC01E89411911032E9F3D8
:10438000193010F01E30C8F31B3251F01D3249F4C1
:10439000689406C00E944F22610F711D811D911DFE
:1043A000119110531A30B0F33EF4909580957095AA
:1043B00061957F4F8F4F9F4F1F910895FB01DC0147
:1043C00002C001900D9241505040D8F70895FB0172
:1043D000DC018D91019080190110D9F3990B08959A
:1043E000FB01DC0101900D920020E1F70895FB0133
:1043F000DC014150504030F08D910190801919F44A
:104400000020B9F7881B990B0895FB0151915523A2
:10441000A9F0BF01DC014D9145174111E1F759F4B5
:10442000CD010190002049F04D9140154111C9F393
:10443000FB014111EFCF81E090E0019708954532F3
:10444000510520F4423010F00C942A22FB01108216
:10445000CB010895BB274A3031F4992322F4BDE201
:10446000909581959F4F0C9487222532310520F439
:10447000223010F00C944022FA011082CA010895F3
:10448000BB272A3051F4992342F4BDE290958095E0
:10449000709561957F4F8F4F9F4F0C946522592FD8
:1044A000482F372F262F660F771F881F991F660FFB
:1044B000771F881F991F620F731F841F951F660F38
:1044C000771F881F991F0895BB27FA01A62F62172F
:1044D000710581059105330B30FB66F0AA27660F45
:1044E000771F881F991FAA1FA21710F0A21B6395A0
:1044F0003850A9F7A05DAA3308F0A95DA19336F75B
:10450000B111B1931082CA010C940C25BB27FB0199
:104510005527AA27880F991FAA1FA41710F0A41BBC
:1045200083955051B9F7A05DAA3308F0A95DA19316
:10453000009779F7B111B1931192CB010C940C252E
:10454000F999FECF92BD81BDF89A992780B508955B
:10455000262FF999FECF1FBA92BD81BD20BD0FB69F
:10456000F894FA9AF99A0FBE019608956F927F9285
:104570009F92AF92BF92CF92DF92EF92FF920F93F2
:104580001F93CF93DF93CDB7DEB729970FB6F8947B
:10459000DEBF0FBECDBF6A01B22E102F0C3320F448
:1045A000FF24F394F00E02C04CE3F42E0F2D27E00D
:1045B000AE014F5F5F4F0E9434247981272F29700D
:1045C000213031F0E1FC06C0E0FC06C060E005C02F
:1045D0006DE203C06BE201C060E2AE2DA07173FF1B
:1045E00036C0662311F084E001C083E08B1510F41F
:1045F000B81A01C0B12CA1110BC0F6018B2D90E2AD
:10460000882319F091938150FBCFCB0CD11CB12C96
:10461000662331F0F601608396012F5F3F4F6901F9
:10462000C6010396E2FE05C02EE4F601208331E4C4
:1046300004C02EE6F601208331E631832283FC019B
:104640002B2D30E22223F1F131932150FBCF72FF69
:1046500040C0662311F084E001C083E08B1510F4A4
:10466000B81A01C0B12CA1110BC0F6018B2D90E23C
:10467000882319F091938150FBCFCB0CD11CB12C26
:10468000662331F0F601608396012F5F3F4F690189
:10469000C6010396E2FE07C029E4F60120832EE45A
:1046A000218326E406C029E6F60120832EE6218335
:1046B00026E62283FC012B2D30E2222319F03193D0
:1046C0002150FBCFFC01EB0DF11D10828EEF9FEF0F
:1046D000B7C0B1E0611101C0B0E04B2F50E0181637
:1046E000190624F49C012F5F3F4F02C021E030E007
:1046F000240F351F112329F0412F50E04F5F5F4FEA
:1047000002C040E050E0420F531F2B2D30E0421713
:10471000530714F4B41A01C0B12C2E2D287159F48A
:10472000F6012B2D30E2222319F031932150FBCFDB
:10473000CB0CD11CB12CBB2331F0F6016083960168
:104740002F5F3F4F6901A1110BC0F6012B2D30E304
:10475000222319F031932150FBCFCB0CD11CB12C6B
:10476000F80E0A81372F3071A32E74FF03C0013376
:1047700009F4FA941F142CF42F2D293018F028E096
:1047800001C021E0682F392F97FF02C060E030E0C0
:10479000462F532F612C712C3EE2932EBC01621BDD
:1047A00071099B01DC01A41BB50BE1E0F0E0EC0F0B
:1047B000FD1FAE0FBF1FE12EF12CF194E194F10823
:1047C0004F3FFFEF5F0731F4F6019082B6016F5F54
:1047D0007F4F6B01841795074CF02417350734F48D
:1047E000BD01660D771DFB01118101C010E3415031
:1047F0005109FFEF6F1A7F0AB6016F5F7F4F4E15A9
:104800005F0524F0F60110836B01DACF48175907D2
:1048100039F4063320F4053319F4A11001C011E373
:10482000F6011083FB018B2D90E2882319F0919300
:104830008150FBCFFB01EB0DF11D108280E090E079
:1048400029960FB6F894DEBF0FBECDBFDF91CF9192
:104850001F910F91FF90EF90DF90CF90BF90AF909E
:104860009F907F906F900895283008F027E03327BD
:10487000DA01990F311D87FD916000966105710580
:1048800039F432602E5F3D9330E32A95E1F70895C5
:104890009F3F30F080387105610509F03C5F3C5F57
:1048A0003D93913008F08068911DDF93CF931F9363
:1048B0000F93FF92EF92192F987F9695E92F969577
:1048C0009695E90FFF27ED55FC4F99273327EE24E6
:1048D000FF24A701E70105900894079428F4360FF8
:1048E000E71EF81E491F511D660F771F881F991F6D
:1048F0000694A1F70590079428F4E70EF81E491FC7
:10490000561FC11D770F881F991F661F0694A1F7B8
:104910000590079428F4F80E491F561FC71FD11D94
:10492000880F991F661F771F0694A1F705900794BB
:1049300020F4490F561FC71FD81F990F661F771FF6
:10494000881F0694A9F784911095177041F0D695A9
:10495000C79557954795F794E7941A95C1F7E9E4F9
:10496000F3E06894159015913591659195910590B6
:104970007FE27395E118F10A430B560BC90BD0097E
:10498000C0F7E10CF11E431F561FC91FD01D7EF456
:10499000703311F48A95E6CFE894015030F0080F97
:1049A0000AF40027021708F4202F2395022F7A33E8
:1049B00028F079E37D932A95E9F710C07D932A9535
:1049C00089F6069497956795379517951794E1188A
:1049D000F10A430B560BC90BD00998F023957E9131
:1049E00073957A3308F070E37C932013B8F77E91C7
:1049F00070617D9330F0839571E37D9370E32A9528
:104A0000E1F71124EF90FF900F911F91CF91DF916B
:104A1000992787FD90950895DC01FC01672F71911E
:104A20007723E1F7329704C07C916D937083629194
:104A3000AE17BF07C8F308952F923F924F925F922F
:104A40006F927F928F929F92AF92BF92CF92DF929E
:104A5000EF92FF920F931F93CF93DF93CDB7DEB703
:104A6000CA1BDB0B0FB6F894DEBF0FBECDBF099497
:104A70002A88398848885F846E847D848C849B84EE
:104A8000AA84B984C884DF80EE80FD800C811B81FC
:104A9000AA81B981CE0FD11D0FB6F894DEBF0FBE2B
:104AA000CDBFED01089514E0CCE4D4E004C0FE01D4
:104AB0000E947F1F2296CE34D107C9F7F894FFCF0A
:104AC0000000510880000100000000B9C847D0076D
:104AD000E803480000E100000000000001012D2D66
:104AE0002D3D3D3D204465627567204D656E752006
:104AF0003D3D3D2D2D2D00546F67676C65206F7017
:104B000074696F6E733A002020616F6E2F616F665B
:104B100066202D20746F67676C6520646973706C04
:104B20006179696E6720616C746974756465206968
:104B30006E666F726D6174696F6E002020746F6EA7
:104B40002F746F6666202D20746F67676C65206414
:104B50006973706C6179696E672074656D706572D8
:104B6000617475726520696E666F726D6174696FCC
:104B70006E002020706F6E2F706F6666202D20747F
:104B80006F67676C6520646973706C6179696E67C3
:104B900020707265737375726520696E666F726DD1
:104BA0006174696F6E002020616C6C6F6E2F616C98
:104BB0006C6F6666202D20746F67676C6520646972
:104BC00073706C6179696E6720616C6C203300458D
:104BD0006570726F6D2073657474696E67733A00E7
:104BE0002020616C743A202D2053657420616C7410
:104BF00069747564652068656967687420696E20EA
:104C0000696E6368657320746F2074726967676585
:104C10007220746865206C616E64696E67206765D8
:104C200061722E20284F6E6C7920757365203630A6
:104C30002D323534206E6F20646563696D616C2997
:104C40000020202020202020202042656C6F77202B
:104C50007468697320686569676874207468652082
:104C6000676561722077696C6C20657874656E6425
:104C70002E202041626F7665207468697320686514
:104C80006967687420676561722077696C6C20724F
:104C90006574726163742E202053656E64696E675B
:104CA0000020202020202020202022616C743A2225
:104CB0002077697468206E6F206865696768742062
:104CC00077696C6C2073686F7720746865206375F2
:104CD0007272656E742074726967676572206865A8
:104CE000696768742E0020204578616D706C653AA4
:104CF000002020616C743A37322020283732206936
:104D00006E63686573206973203620666565742953
:104D1000002020736572766F3A202D2053657473DE
:104D20002074686520736572766F73206C6F7720CE
:104D3000616E6420686967682073657474696E6762
:104D40007320746F20657874656E6420616E6420D2
:104D500072657472616374002020736572766F3AB5
:104D6000313030303A323030302020286578746568
:104D70006E647320617420313030302C2072657481
:104D800072616374732061742032303030290043C3
:104D90006F6E74726F6C3A002020657874656E6473
:104DA000202D20466F7263657320746865206765E7
:104DB000617220746F206574656E642E20205468C3
:104DC000697320697320746F2068656C7020726548
:104DD0006C656173652074686520726574726163C7
:104DE000747320696620737475636B20696E00208C
:104DF0002020202020202020202061206365727444
:104E000061696E20706F736974696F6E2E00202067
:104E100072657472616374202D20466F72636573CE
:104E200020746865206765617220746F20726574F4
:104E3000726163742E202054686973206973207432
:104E40006F2068656C702072656C65617365207495
:104E5000686520726574726163747320696620737B
:104E60007475636B0020202020202020202020202B
:104E700020696E2061206365727461696E20706FB5
:104E8000736974696F6E2E002020446570656E64CE
:104E9000696E67206F6E2074686520637572726535
:104EA0006E7420686569676874206F662074686531
:104EB0002064726F6E6520696E2072656C61746922
:104EC0006F6E20746F2074686520626173656C6911
:104ED0006E652C207265747261637420616E642F3C
:104EE0006F7220657874656E640020206D69676854
:104EF00074206E6F74206861766520616E79206120
:104F000066666563742E00416C746974756465200F
:104F10003D200020696E63686573207C20426173C8
:104F2000656C696E6520646966666572656E636549
:104F3000203D200054656D70657261747572652046
:104F40003D2000202A4300507265737375726520FE
:104F50003D20002050610069203E20353030004364
:104F60006F756C64206E6F742066696E64206120BA
:104F700076616C696420424D503038352073656E1F
:104F8000736F722C20636865636B20776972696E3A
:104F900067210042756666657220656D70747900E0
:104FA0006D656E750D00616F6E0D00616F66660D4B
:104FB00000746F6E0D00746F66660D00706F6E0D7D
:104FC00000706F66660D00616C6C6F6E0D00616C39
:104FD0006C6F66660D00657874656E640D007265B1
:104FE00074726163740D00616C743A00416C746991
:104FF000747564653A200020696E636865730043C8
:10500000757272656E74207472696767657220616B
:105010006C7469747564653A2000736572766F3AD2
:1050200000536572766F20657874656E643A20006F
:10503000207C20726574726163743A200000000065
:1050400000950B680B3D0B450B580B670B000000E0
:1050500000DE12251308131813F41205130D0A00AD
:105060006E616E00696E66006F766600000000007B
:0A5070008E1AE113011B6F1BB71B22
:00000001FF
